{
  "contractName": "AddressMapper",
  "abi": [
    {
      "constant": false,
      "inputs": [
        {
          "name": "account",
          "type": "address"
        }
      ],
      "name": "addMaster",
      "outputs": [],
      "payable": false,
      "stateMutability": "nonpayable",
      "type": "function"
    },
    {
      "constant": false,
      "inputs": [],
      "name": "renounceMaster",
      "outputs": [],
      "payable": false,
      "stateMutability": "nonpayable",
      "type": "function"
    },
    {
      "constant": true,
      "inputs": [
        {
          "name": "",
          "type": "address"
        }
      ],
      "name": "mapper",
      "outputs": [
        {
          "name": "",
          "type": "string"
        }
      ],
      "payable": false,
      "stateMutability": "view",
      "type": "function"
    },
    {
      "constant": true,
      "inputs": [
        {
          "name": "account",
          "type": "address"
        }
      ],
      "name": "isMaster",
      "outputs": [
        {
          "name": "",
          "type": "bool"
        }
      ],
      "payable": false,
      "stateMutability": "view",
      "type": "function"
    },
    {
      "payable": true,
      "stateMutability": "payable",
      "type": "fallback"
    },
    {
      "anonymous": false,
      "inputs": [
        {
          "indexed": true,
          "name": "src",
          "type": "address"
        },
        {
          "indexed": true,
          "name": "target",
          "type": "bytes32"
        },
        {
          "indexed": false,
          "name": "rawTarget",
          "type": "string"
        }
      ],
      "name": "DoMap",
      "type": "event"
    },
    {
      "anonymous": false,
      "inputs": [
        {
          "indexed": true,
          "name": "src",
          "type": "address"
        },
        {
          "indexed": true,
          "name": "target",
          "type": "bytes32"
        },
        {
          "indexed": false,
          "name": "rawTarget",
          "type": "string"
        }
      ],
      "name": "DoMapAuto",
      "type": "event"
    },
    {
      "anonymous": false,
      "inputs": [
        {
          "indexed": true,
          "name": "src",
          "type": "address"
        }
      ],
      "name": "UnMap",
      "type": "event"
    },
    {
      "anonymous": false,
      "inputs": [
        {
          "indexed": true,
          "name": "account",
          "type": "address"
        }
      ],
      "name": "MasterAdded",
      "type": "event"
    },
    {
      "anonymous": false,
      "inputs": [
        {
          "indexed": true,
          "name": "account",
          "type": "address"
        }
      ],
      "name": "MasterRemoved",
      "type": "event"
    },
    {
      "constant": true,
      "inputs": [
        {
          "name": "thisAddr",
          "type": "address"
        }
      ],
      "name": "isAddressSet",
      "outputs": [
        {
          "name": "",
          "type": "bool"
        }
      ],
      "payable": false,
      "stateMutability": "view",
      "type": "function"
    },
    {
      "constant": false,
      "inputs": [
        {
          "name": "src",
          "type": "address"
        },
        {
          "name": "target",
          "type": "string"
        }
      ],
      "name": "doMap",
      "outputs": [],
      "payable": false,
      "stateMutability": "nonpayable",
      "type": "function"
    },
    {
      "constant": false,
      "inputs": [
        {
          "name": "src",
          "type": "address"
        }
      ],
      "name": "unMap",
      "outputs": [],
      "payable": false,
      "stateMutability": "nonpayable",
      "type": "function"
    },
    {
      "constant": false,
      "inputs": [
        {
          "name": "destination",
          "type": "address"
        },
        {
          "name": "value",
          "type": "uint256"
        },
        {
          "name": "data",
          "type": "bytes"
        }
      ],
      "name": "submitTransaction",
      "outputs": [],
      "payable": false,
      "stateMutability": "nonpayable",
      "type": "function"
    }
  ],
  "bytecode": "0x608060405261001c33610021640100000000026401000000009004565b6101db565b61004281600061008864010000000002610cef179091906401000000009004565b8073ffffffffffffffffffffffffffffffffffffffff167ff5ba3fce67b8de4c0e7de7de8204e81c654322e7938c55323943785f7feac61a60405160405180910390a250565b600073ffffffffffffffffffffffffffffffffffffffff168173ffffffffffffffffffffffffffffffffffffffff16141515156100c457600080fd5b6100dd8282610147640100000000026401000000009004565b1515156100e957600080fd5b60018260000160008373ffffffffffffffffffffffffffffffffffffffff1673ffffffffffffffffffffffffffffffffffffffff16815260200190815260200160002060006101000a81548160ff0219169083151502179055505050565b60008073ffffffffffffffffffffffffffffffffffffffff168273ffffffffffffffffffffffffffffffffffffffff161415151561018457600080fd5b8260000160008373ffffffffffffffffffffffffffffffffffffffff1673ffffffffffffffffffffffffffffffffffffffff16815260200190815260200160002060009054906101000a900460ff16905092915050565b610f1f806101ea6000396000f30060806040526004361061008e576000357c0100000000000000000000000000000000000000000000000000000000900463ffffffff1680631097d54a1461021257806313012a3b1461025557806336b324ff146102de5780639502bb8a14610321578063c642747414610338578063c82c73c1146103cb578063d0984d6514610426578063f720f80b146104e2575b336060600160008373ffffffffffffffffffffffffffffffffffffffff1673ffffffffffffffffffffffffffffffffffffffff1681526020019081526020016000208054600181600116156101000203166002900480601f0160208091040260200160405190810160405280929190818152602001828054600181600116156101000203166002900480156101645780601f1061013957610100808354040283529160200191610164565b820191906000526020600020905b81548152906001019060200180831161014757829003601f168201915b505050505090506000815114151561017b57600080fd5b60003411151561018a57600080fd5b6101c7336000368080601f01602080910402602001604051908101604052809392919081815260200183838082843782019150505050505061053d565b3373ffffffffffffffffffffffffffffffffffffffff166108fc349081150290604051600060405180830381858888f1935050505015801561020d573d6000803e3d6000fd5b505050005b34801561021e57600080fd5b50610253600480360381019080803573ffffffffffffffffffffffffffffffffffffffff16906020019092919050505061065b565b005b34801561026157600080fd5b506102dc600480360381019080803573ffffffffffffffffffffffffffffffffffffffff169060200190929190803590602001908201803590602001908080601f016020809104026020016040519081016040528093929190818152602001838380828437820191505050505050919291929050505061067b565b005b3480156102ea57600080fd5b5061031f600480360381019080803573ffffffffffffffffffffffffffffffffffffffff16906020019092919050505061089c565b005b34801561032d57600080fd5b5061033661095a565b005b34801561034457600080fd5b506103c9600480360381019080803573ffffffffffffffffffffffffffffffffffffffff16906020019092919080359060200190929190803590602001908201803590602001908080601f0160208091040260200160405190810160405280939291908181526020018383808284378201915050505050509192919290505050610965565b005b3480156103d757600080fd5b5061040c600480360381019080803573ffffffffffffffffffffffffffffffffffffffff16906020019092919050505061098c565b604051808215151515815260200191505060405180910390f35b34801561043257600080fd5b50610467600480360381019080803573ffffffffffffffffffffffffffffffffffffffff169060200190929190505050610a88565b6040518080602001828103825283818151815260200191508051906020019080838360005b838110156104a757808201518184015260208101905061048c565b50505050905090810190601f1680156104d45780820380516001836020036101000a031916815260200191505b509250505060405180910390f35b3480156104ee57600080fd5b50610523600480360381019080803573ffffffffffffffffffffffffffffffffffffffff169060200190929190505050610b38565b604051808215151515815260200191505060405180910390f35b600081600160008573ffffffffffffffffffffffffffffffffffffffff1673ffffffffffffffffffffffffffffffffffffffff1681526020019081526020016000209080519060200190610592929190610e4e565b5061059c82610b55565b905080600019168373ffffffffffffffffffffffffffffffffffffffff167f7595f3d0dc96460988a539f6928344cb6666a8c7a956f074eee5b2b2240cc2c5846040518080602001828103825283818151815260200191508051906020019080838360005b8381101561061c578082015181840152602081019050610601565b50505050905090810190601f1680156106495780820380516001836020036101000a031916815260200191505b509250505060405180910390a3505050565b61066433610b38565b151561066f57600080fd5b61067881610b80565b50565b600061068633610b38565b151561069157600080fd5b826060600160008373ffffffffffffffffffffffffffffffffffffffff1673ffffffffffffffffffffffffffffffffffffffff1681526020019081526020016000208054600181600116156101000203166002900480601f0160208091040260200160405190810160405280929190818152602001828054600181600116156101000203166002900480156107675780601f1061073c57610100808354040283529160200191610767565b820191906000526020600020905b81548152906001019060200180831161074a57829003601f168201915b505050505090506000815114151561077e57600080fd5b83600160008773ffffffffffffffffffffffffffffffffffffffff1673ffffffffffffffffffffffffffffffffffffffff16815260200190815260200160002090805190602001906107d1929190610e4e565b506107db84610b55565b925082600019168573ffffffffffffffffffffffffffffffffffffffff167f06b48f18aa9b0302b4a87fd97445e2ba28f72c08b7d88d39cd95a495e0d20ede866040518080602001828103825283818151815260200191508051906020019080838360005b8381101561085b578082015181840152602081019050610840565b50505050905090810190601f1680156108885780820380516001836020036101000a031916815260200191505b509250505060405180910390a35050505050565b6108a533610b38565b15156108b057600080fd5b6020604051908101604052806000815250600160008373ffffffffffffffffffffffffffffffffffffffff1673ffffffffffffffffffffffffffffffffffffffff1681526020019081526020016000209080519060200190610913929190610e4e565b508073ffffffffffffffffffffffffffffffffffffffff167f9fa4ee5d06eb997d994009d66daa07db3cb4d9d10248897a1806c3b247b3150d60405160405180910390a250565b61096333610bda565b565b61096e33610b38565b151561097957600080fd5b6109868383835184610c34565b50505050565b60006060600160008473ffffffffffffffffffffffffffffffffffffffff1673ffffffffffffffffffffffffffffffffffffffff1681526020019081526020016000208054600181600116156101000203166002900480601f016020809104026020016040519081016040528092919081815260200182805460018160011615610100020316600290048015610a635780601f10610a3857610100808354040283529160200191610a63565b820191906000526020600020905b815481529060010190602001808311610a4657829003601f168201915b50505050509050600081511415610a7d5760009150610a82565b600191505b50919050565b60016020528060005260406000206000915090508054600181600116156101000203166002900480601f016020809104026020016040519081016040528092919081815260200182805460018160011615610100020316600290048015610b305780601f10610b0557610100808354040283529160200191610b30565b820191906000526020600020905b815481529060010190602001808311610b1357829003601f168201915b505050505081565b6000610b4e826000610c5b90919063ffffffff16565b9050919050565b60006060829050600081511415610b725760006001029150610b7a565b602083015191505b50919050565b610b94816000610cef90919063ffffffff16565b8073ffffffffffffffffffffffffffffffffffffffff167ff5ba3fce67b8de4c0e7de7de8204e81c654322e7938c55323943785f7feac61a60405160405180910390a250565b610bee816000610d9f90919063ffffffff16565b8073ffffffffffffffffffffffffffffffffffffffff167f172fe94094083000fd539a8f2dbd371a9399afe3e8721195f73203ef7f1595f160405160405180910390a250565b6000806040516020840160008287838a8c6187965a03f19250505080915050949350505050565b60008073ffffffffffffffffffffffffffffffffffffffff168273ffffffffffffffffffffffffffffffffffffffff1614151515610c9857600080fd5b8260000160008373ffffffffffffffffffffffffffffffffffffffff1673ffffffffffffffffffffffffffffffffffffffff16815260200190815260200160002060009054906101000a900460ff16905092915050565b600073ffffffffffffffffffffffffffffffffffffffff168173ffffffffffffffffffffffffffffffffffffffff1614151515610d2b57600080fd5b610d358282610c5b565b151515610d4157600080fd5b60018260000160008373ffffffffffffffffffffffffffffffffffffffff1673ffffffffffffffffffffffffffffffffffffffff16815260200190815260200160002060006101000a81548160ff0219169083151502179055505050565b600073ffffffffffffffffffffffffffffffffffffffff168173ffffffffffffffffffffffffffffffffffffffff1614151515610ddb57600080fd5b610de58282610c5b565b1515610df057600080fd5b60008260000160008373ffffffffffffffffffffffffffffffffffffffff1673ffffffffffffffffffffffffffffffffffffffff16815260200190815260200160002060006101000a81548160ff0219169083151502179055505050565b828054600181600116156101000203166002900490600052602060002090601f016020900481019282601f10610e8f57805160ff1916838001178555610ebd565b82800160010185558215610ebd579182015b82811115610ebc578251825591602001919060010190610ea1565b5b509050610eca9190610ece565b5090565b610ef091905b80821115610eec576000816000905550600101610ed4565b5090565b905600a165627a7a72305820978ce4c6dec89dcde6ab13617b42e3c87ca2b9bb361746b80d6e4f84112cbbf80029",
  "source": "pragma solidity ^0.4.24;\nimport \"./MasterRole.sol\";\n\ncontract AddressMapper is MasterRole {\n    \n    event DoMap(address indexed src, bytes32 indexed target, string rawTarget);\n    event DoMapAuto(address indexed src, bytes32 indexed target, string rawTarget);\n    event UnMap(address indexed src);\n\n    mapping (address => string) public mapper;\n\n    modifier onlyNotSet(address src) {\n        bytes memory tmpTargetBytes = bytes(mapper[src]);\n        require(tmpTargetBytes.length == 0);\n        _;\n    }\n\n    function()\n        public\n        payable\n        onlyNotSet(msg.sender)\n    {\n        require(msg.value > 0);\n        _doMapAuto(msg.sender, string(msg.data));\n        msg.sender.transfer(msg.value);\n    }\n\n    function isAddressSet(address thisAddr)\n        public\n        view\n        returns(bool)\n    {\n        bytes memory tmpTargetBytes = bytes(mapper[thisAddr]);\n        if(tmpTargetBytes.length == 0) {\n            return false;\n        } else {\n            return true;\n        }\n    }\n\n    function _doMapAuto(address src, string target)\n        internal\n    {\n        mapper[src] = target;\n        bytes32 translated = _stringToBytes32(target);\n        emit DoMapAuto(src, translated, target);\n    }\n\n    function doMap(address src, string target) \n        public\n        onlyMaster\n        onlyNotSet(src)\n    {\n        mapper[src] = target;\n        bytes32 translated = _stringToBytes32(target);\n        emit DoMap(src, translated, target);\n    }\n\n    function unMap(address src) \n        public\n        onlyMaster\n    {\n        mapper[src] = \"\";\n        emit UnMap(src);\n    }\n\n    function _stringToBytes32(string memory source) internal returns (bytes32 result) {\n        bytes memory tempEmptyStringTest = bytes(source);\n        if (tempEmptyStringTest.length == 0) {\n            return 0x0;\n        }\n\n        assembly {\n            result := mload(add(source, 32))\n        }\n    }\n\n    function submitTransaction(address destination, uint value, bytes data)\n        public\n        onlyMaster\n    {\n        external_call(destination, value, data.length, data);\n    }\n\n    function external_call(address destination, uint value, uint dataLength, bytes data) private returns (bool) {\n        bool result;\n        assembly {\n            let x := mload(0x40)   // \"Allocate\" memory for output (0x40 is where \"free memory\" pointer is stored by convention)\n            let d := add(data, 32) // First 32 bytes are the padded length of data, so exclude that\n            result := call(\n                sub(gas, 34710),   // 34710 is the value that solidity is currently emitting\n                                   // It includes callGas (700) + callVeryLow (3, to pay for SUB) + callValueTransferGas (9000) +\n                                   // callNewAccountGas (25000, in case the destination address does not exist and needs creating)\n                destination,\n                value,\n                d,\n                dataLength,        // Size of the input (in bytes) - this is what fixes the padding problem\n                x,\n                0                  // Output is ignored, therefore the output size is zero\n            )\n        }\n        return result;\n    }\n}",
  "sourcePath": "/Users/sanari85/kerasios/KerasiosWallet/contracts/AddressMapper.sol",
  "compiler": {
    "name": "solc",
    "version": "0.4.24+commit.e67f0147.Emscripten.clang"
  },
  "schemaVersion": "2.0.1",
  "updatedAt": "2018-11-27T04:28:19.318Z"
}